{
	"data": {
		"bytecode": {
			"linkReferences": {},
			"object": "6080604052600a5f5560026001553480156017575f80fd5b50610359806100255f395ff3fe608060405234801561000f575f80fd5b506004361061004a575f3560e01c80634f2be91f1461004e578063b53b8d7a1461006c578063df09a2da1461008a578063f3593cd0146100a8575b5f80fd5b6100566100c6565b6040516100639190610151565b60405180910390f35b6100746100db565b6040516100819190610151565b60405180910390f35b61009261010f565b60405161009f9190610151565b60405180910390f35b6100b0610124565b6040516100bd9190610151565b60405180910390f35b5f6001545f546100d69190610197565b905090565b5f6001545f54136100fa575f546001546100f59190610205565b61010a565b6001545f546101099190610205565b5b905090565b5f6001545f5461011f919061026d565b905090565b5f6001545f5461013491906102ad565b905090565b5f819050919050565b61014b81610139565b82525050565b5f6020820190506101645f830184610142565b92915050565b7f4e487b71000000000000000000000000000000000000000000000000000000005f52601160045260245ffd5b5f6101a182610139565b91506101ac83610139565b92508282019050828112155f8312168382125f8412151617156101d2576101d161016a565b5b92915050565b7f4e487b71000000000000000000000000000000000000000000000000000000005f52601260045260245ffd5b5f61020f82610139565b915061021a83610139565b92508261022a576102296101d8565b5b60015f0383147f8000000000000000000000000000000000000000000000000000000000000000831416156102625761026161016a565b5b828205905092915050565b5f61027782610139565b915061028283610139565b925082820390508181125f8412168282135f8512151617156102a7576102a661016a565b5b92915050565b5f6102b782610139565b91506102c283610139565b92508282026102d081610139565b91507f800000000000000000000000000000000000000000000000000000000000000084145f841216156103075761030661016a565b5b828205841483151761031c5761031b61016a565b5b509291505056fea26469706673582212200cb0b3a143b49f318f7d51f556794de2b71e3aa3a9947c25869d6f99af7cb16c64736f6c634300081a0033",
			"opcodes": "PUSH1 0x80 PUSH1 0x40 MSTORE PUSH1 0xA PUSH0 SSTORE PUSH1 0x2 PUSH1 0x1 SSTORE CALLVALUE DUP1 ISZERO PUSH1 0x17 JUMPI PUSH0 DUP1 REVERT JUMPDEST POP PUSH2 0x359 DUP1 PUSH2 0x25 PUSH0 CODECOPY PUSH0 RETURN INVALID PUSH1 0x80 PUSH1 0x40 MSTORE CALLVALUE DUP1 ISZERO PUSH2 0xF JUMPI PUSH0 DUP1 REVERT JUMPDEST POP PUSH1 0x4 CALLDATASIZE LT PUSH2 0x4A JUMPI PUSH0 CALLDATALOAD PUSH1 0xE0 SHR DUP1 PUSH4 0x4F2BE91F EQ PUSH2 0x4E JUMPI DUP1 PUSH4 0xB53B8D7A EQ PUSH2 0x6C JUMPI DUP1 PUSH4 0xDF09A2DA EQ PUSH2 0x8A JUMPI DUP1 PUSH4 0xF3593CD0 EQ PUSH2 0xA8 JUMPI JUMPDEST PUSH0 DUP1 REVERT JUMPDEST PUSH2 0x56 PUSH2 0xC6 JUMP JUMPDEST PUSH1 0x40 MLOAD PUSH2 0x63 SWAP2 SWAP1 PUSH2 0x151 JUMP JUMPDEST PUSH1 0x40 MLOAD DUP1 SWAP2 SUB SWAP1 RETURN JUMPDEST PUSH2 0x74 PUSH2 0xDB JUMP JUMPDEST PUSH1 0x40 MLOAD PUSH2 0x81 SWAP2 SWAP1 PUSH2 0x151 JUMP JUMPDEST PUSH1 0x40 MLOAD DUP1 SWAP2 SUB SWAP1 RETURN JUMPDEST PUSH2 0x92 PUSH2 0x10F JUMP JUMPDEST PUSH1 0x40 MLOAD PUSH2 0x9F SWAP2 SWAP1 PUSH2 0x151 JUMP JUMPDEST PUSH1 0x40 MLOAD DUP1 SWAP2 SUB SWAP1 RETURN JUMPDEST PUSH2 0xB0 PUSH2 0x124 JUMP JUMPDEST PUSH1 0x40 MLOAD PUSH2 0xBD SWAP2 SWAP1 PUSH2 0x151 JUMP JUMPDEST PUSH1 0x40 MLOAD DUP1 SWAP2 SUB SWAP1 RETURN JUMPDEST PUSH0 PUSH1 0x1 SLOAD PUSH0 SLOAD PUSH2 0xD6 SWAP2 SWAP1 PUSH2 0x197 JUMP JUMPDEST SWAP1 POP SWAP1 JUMP JUMPDEST PUSH0 PUSH1 0x1 SLOAD PUSH0 SLOAD SGT PUSH2 0xFA JUMPI PUSH0 SLOAD PUSH1 0x1 SLOAD PUSH2 0xF5 SWAP2 SWAP1 PUSH2 0x205 JUMP JUMPDEST PUSH2 0x10A JUMP JUMPDEST PUSH1 0x1 SLOAD PUSH0 SLOAD PUSH2 0x109 SWAP2 SWAP1 PUSH2 0x205 JUMP JUMPDEST JUMPDEST SWAP1 POP SWAP1 JUMP JUMPDEST PUSH0 PUSH1 0x1 SLOAD PUSH0 SLOAD PUSH2 0x11F SWAP2 SWAP1 PUSH2 0x26D JUMP JUMPDEST SWAP1 POP SWAP1 JUMP JUMPDEST PUSH0 PUSH1 0x1 SLOAD PUSH0 SLOAD PUSH2 0x134 SWAP2 SWAP1 PUSH2 0x2AD JUMP JUMPDEST SWAP1 POP SWAP1 JUMP JUMPDEST PUSH0 DUP2 SWAP1 POP SWAP2 SWAP1 POP JUMP JUMPDEST PUSH2 0x14B DUP2 PUSH2 0x139 JUMP JUMPDEST DUP3 MSTORE POP POP JUMP JUMPDEST PUSH0 PUSH1 0x20 DUP3 ADD SWAP1 POP PUSH2 0x164 PUSH0 DUP4 ADD DUP5 PUSH2 0x142 JUMP JUMPDEST SWAP3 SWAP2 POP POP JUMP JUMPDEST PUSH32 0x4E487B7100000000000000000000000000000000000000000000000000000000 PUSH0 MSTORE PUSH1 0x11 PUSH1 0x4 MSTORE PUSH1 0x24 PUSH0 REVERT JUMPDEST PUSH0 PUSH2 0x1A1 DUP3 PUSH2 0x139 JUMP JUMPDEST SWAP2 POP PUSH2 0x1AC DUP4 PUSH2 0x139 JUMP JUMPDEST SWAP3 POP DUP3 DUP3 ADD SWAP1 POP DUP3 DUP2 SLT ISZERO PUSH0 DUP4 SLT AND DUP4 DUP3 SLT PUSH0 DUP5 SLT ISZERO AND OR ISZERO PUSH2 0x1D2 JUMPI PUSH2 0x1D1 PUSH2 0x16A JUMP JUMPDEST JUMPDEST SWAP3 SWAP2 POP POP JUMP JUMPDEST PUSH32 0x4E487B7100000000000000000000000000000000000000000000000000000000 PUSH0 MSTORE PUSH1 0x12 PUSH1 0x4 MSTORE PUSH1 0x24 PUSH0 REVERT JUMPDEST PUSH0 PUSH2 0x20F DUP3 PUSH2 0x139 JUMP JUMPDEST SWAP2 POP PUSH2 0x21A DUP4 PUSH2 0x139 JUMP JUMPDEST SWAP3 POP DUP3 PUSH2 0x22A JUMPI PUSH2 0x229 PUSH2 0x1D8 JUMP JUMPDEST JUMPDEST PUSH1 0x1 PUSH0 SUB DUP4 EQ PUSH32 0x8000000000000000000000000000000000000000000000000000000000000000 DUP4 EQ AND ISZERO PUSH2 0x262 JUMPI PUSH2 0x261 PUSH2 0x16A JUMP JUMPDEST JUMPDEST DUP3 DUP3 SDIV SWAP1 POP SWAP3 SWAP2 POP POP JUMP JUMPDEST PUSH0 PUSH2 0x277 DUP3 PUSH2 0x139 JUMP JUMPDEST SWAP2 POP PUSH2 0x282 DUP4 PUSH2 0x139 JUMP JUMPDEST SWAP3 POP DUP3 DUP3 SUB SWAP1 POP DUP2 DUP2 SLT PUSH0 DUP5 SLT AND DUP3 DUP3 SGT PUSH0 DUP6 SLT ISZERO AND OR ISZERO PUSH2 0x2A7 JUMPI PUSH2 0x2A6 PUSH2 0x16A JUMP JUMPDEST JUMPDEST SWAP3 SWAP2 POP POP JUMP JUMPDEST PUSH0 PUSH2 0x2B7 DUP3 PUSH2 0x139 JUMP JUMPDEST SWAP2 POP PUSH2 0x2C2 DUP4 PUSH2 0x139 JUMP JUMPDEST SWAP3 POP DUP3 DUP3 MUL PUSH2 0x2D0 DUP2 PUSH2 0x139 JUMP JUMPDEST SWAP2 POP PUSH32 0x8000000000000000000000000000000000000000000000000000000000000000 DUP5 EQ PUSH0 DUP5 SLT AND ISZERO PUSH2 0x307 JUMPI PUSH2 0x306 PUSH2 0x16A JUMP JUMPDEST JUMPDEST DUP3 DUP3 SDIV DUP5 EQ DUP4 ISZERO OR PUSH2 0x31C JUMPI PUSH2 0x31B PUSH2 0x16A JUMP JUMPDEST JUMPDEST POP SWAP3 SWAP2 POP POP JUMP INVALID LOG2 PUSH5 0x6970667358 0x22 SLT KECCAK256 0xC 0xB0 0xB3 LOG1 NUMBER 0xB4 SWAP16 BALANCE DUP16 PUSH30 0x51F556794DE2B71E3AA3A9947C25869D6F99AF7CB16C64736F6C63430008 BYTE STOP CALLER "
		},
		"gasEstimates": {
			"creation": {
				"codeDepositCost": "171400",
				"executionCost": "44423",
				"totalCost": "215823"
			},
			"external": {
				"add()": "infinite",
				"divide()": "infinite",
				"multiply()": "infinite",
				"substract()": "infinite"
			}
		},
		"methodIdentifiers": {
			"add()": "4f2be91f",
			"divide()": "b53b8d7a",
			"multiply()": "f3593cd0",
			"substract()": "df09a2da"
		}
	},
	"abi": [
		{
			"inputs": [],
			"name": "add",
			"outputs": [
				{
					"internalType": "int256",
					"name": "",
					"type": "int256"
				}
			],
			"stateMutability": "view",
			"type": "function"
		},
		{
			"inputs": [],
			"name": "divide",
			"outputs": [
				{
					"internalType": "int256",
					"name": "",
					"type": "int256"
				}
			],
			"stateMutability": "view",
			"type": "function"
		},
		{
			"inputs": [],
			"name": "multiply",
			"outputs": [
				{
					"internalType": "int256",
					"name": "",
					"type": "int256"
				}
			],
			"stateMutability": "view",
			"type": "function"
		},
		{
			"inputs": [],
			"name": "substract",
			"outputs": [
				{
					"internalType": "int256",
					"name": "",
					"type": "int256"
				}
			],
			"stateMutability": "view",
			"type": "function"
		}
	]
}